{"abi":[{"type":"constructor","inputs":[],"stateMutability":"payable"},{"type":"function","name":"createEmailStorage","inputs":[],"outputs":[{"name":"","type":"address","internalType":"address"}],"stateMutability":"nonpayable"},{"type":"function","name":"getEmailStorageBySender","inputs":[{"name":"sender","type":"address","internalType":"address"}],"outputs":[{"name":"","type":"address","internalType":"address"}],"stateMutability":"view"},{"type":"function","name":"getSenderByEmailStorage","inputs":[{"name":"emailStorage","type":"address","internalType":"address"}],"outputs":[{"name":"","type":"address","internalType":"address"}],"stateMutability":"view"},{"type":"function","name":"owner","inputs":[],"outputs":[{"name":"","type":"address","internalType":"address"}],"stateMutability":"view"},{"type":"function","name":"renounceOwnership","inputs":[],"outputs":[],"stateMutability":"nonpayable"},{"type":"function","name":"service","inputs":[],"outputs":[{"name":"","type":"address","internalType":"address"}],"stateMutability":"view"},{"type":"function","name":"setService","inputs":[{"name":"_service","type":"address","internalType":"address"}],"outputs":[],"stateMutability":"nonpayable"},{"type":"function","name":"transferOwnership","inputs":[{"name":"newOwner","type":"address","internalType":"address"}],"outputs":[],"stateMutability":"nonpayable"},{"type":"event","name":"EmailStorageCreated","inputs":[{"name":"sender","type":"address","indexed":true,"internalType":"address"},{"name":"emailStorage","type":"address","indexed":false,"internalType":"address"}],"anonymous":false},{"type":"event","name":"OwnershipTransferred","inputs":[{"name":"previousOwner","type":"address","indexed":true,"internalType":"address"},{"name":"newOwner","type":"address","indexed":true,"internalType":"address"}],"anonymous":false}],"bytecode":{"object":"0x6080604052600b33600f565b605f565b600080546001600160a01b038381166001600160a01b0319831681178455604051919092169283917f8be0079c531659141344cd1fd0a4f28419497f9722a3daafe3b4186f6b6457e09190a35050565b6129498061006e6000396000f3fe608060405234801561001057600080fd5b50600436106100885760003560e01c8063bf8bdac11161005b578063bf8bdac11461011c578063d598d4c91461012f578063e99ed44914610142578063f2fde38b1461014a57600080fd5b806320c5f7241461008d578063715018a6146100d55780638da5cb5b146100df578063a6439c32146100f0575b600080fd5b6100b961009b366004610589565b6001600160a01b039081166000908152600260205260409020541690565b6040516001600160a01b03909116815260200160405180910390f35b6100dd61015d565b005b6000546001600160a01b03166100b9565b6100b96100fe366004610589565b6001600160a01b039081166000908152600160205260409020541690565b6100dd61012a366004610589565b610171565b6004546100b9906001600160a01b031681565b6100b96101de565b6100dd610158366004610589565b6103fa565b610165610473565b61016f60006104cd565b565b610179610473565b600480546001600160a01b0319166001600160a01b03831617905560005b6003548110156101da576101d2600382815481106101b7576101b76105b9565b6000918252602090912001546001600160a01b03168361051d565b600101610197565b5050565b6004546000906001600160a01b03166102345760405162461bcd60e51b81526020600482015260136024820152721cd95c9d9a58d9481b9bdd081cd95d081e595d606a1b60448201526064015b60405180910390fd5b336000908152600160205260409020546001600160a01b0316156102a95760405162461bcd60e51b815260206004820152602660248201527f456d61696c53746f7261676520616c72656164792065786973747320666f722060448201526539b2b73232b960d11b606482015260840161022b565b60006040516102b79061057c565b604051809103906000f0801580156102d3573d6000803e3d6000fd5b5033600081815260016020818152604080842080546001600160a01b0388166001600160a01b031991821681179092558186526002845282862080548216881790556003805495860181559095527fc2575a0e9e593c00f959f8c92f12db2869c3395a3b0502d05e2516446f71f85b90930180549094168317909355915190815292935090917fb38488193b2dd0c4ea37059b9cd30b33bb8ec8df975c2058b17e93bf25e86c25910160405180910390a260045461039b9082906001600160a01b031661051d565b6040516307e2192b60e21b81523360048201526001600160a01b03821690631f8864ac90602401600060405180830381600087803b1580156103dc57600080fd5b505af11580156103f0573d6000803e3d6000fd5b5092949350505050565b610402610473565b6001600160a01b0381166104675760405162461bcd60e51b815260206004820152602660248201527f4f776e61626c653a206e6577206f776e657220697320746865207a65726f206160448201526564647265737360d01b606482015260840161022b565b610470816104cd565b50565b6000546001600160a01b0316331461016f5760405162461bcd60e51b815260206004820181905260248201527f4f776e61626c653a2063616c6c6572206973206e6f7420746865206f776e6572604482015260640161022b565b600080546001600160a01b038381166001600160a01b0319831681178455604051919092169283917f8be0079c531659141344cd1fd0a4f28419497f9722a3daafe3b4186f6b6457e09190a35050565b60405163bf8bdac160e01b81526001600160a01b03828116600483015283169063bf8bdac190602401600060405180830381600087803b15801561056057600080fd5b505af1158015610574573d6000803e3d6000fd5b505050505050565b612344806105d083390190565b60006020828403121561059b57600080fd5b81356001600160a01b03811681146105b257600080fd5b9392505050565b634e487b7160e01b600052603260045260246000fdfe6080604052600b33600f565b605f565b600080546001600160a01b038381166001600160a01b0319831681178455604051919092169283917f8be0079c531659141344cd1fd0a4f28419497f9722a3daafe3b4186f6b6457e09190a35050565b6122d68061006e6000396000f3fe608060405234801561001057600080fd5b50600436106100b45760003560e01c8063972fe8bc11610071578063972fe8bc14610164578063bf8bdac114610184578063c8a4c72c14610197578063d0006777146101ac578063d598d4c9146101b5578063f2fde38b146101c857600080fd5b80631f8864ac146100b9578063695a7d49146100ce578063715018a6146100ff57806381fd552f1461010757806385293252146101325780638da5cb5b14610153575b600080fd5b6100cc6100c7366004611934565b6101db565b005b6100e16100dc366004611964565b610205565b6040516100f6999897969594939291906119cd565b60405180910390f35b6100cc610617565b60045461011a906001600160a01b031681565b6040516001600160a01b0390911681526020016100f6565b610145610140366004611c78565b61062b565b6040519081526020016100f6565b6000546001600160a01b031661011a565b610177610172366004611964565b610910565b6040516100f69190611f48565b6100cc610192366004611934565b61102a565b61019f611054565b6040516100f69190611f5b565b61014560055481565b60035461011a906001600160a01b031681565b6100cc6101d6366004611934565b611706565b6101e361177f565b600480546001600160a01b0319166001600160a01b0392909216919091179055565b6002818154811061021557600080fd5b60009182526020909120600a9091020180546001820180549193509061023a90611fbf565b80601f016020809104026020016040519081016040528092919081815260200182805461026690611fbf565b80156102b35780601f10610288576101008083540402835291602001916102b3565b820191906000526020600020905b81548152906001019060200180831161029657829003601f168201915b5050505050908060020180546102c890611fbf565b80601f01602080910402602001604051908101604052809291908181526020018280546102f490611fbf565b80156103415780601f1061031657610100808354040283529160200191610341565b820191906000526020600020905b81548152906001019060200180831161032457829003601f168201915b50505050509080600301805461035690611fbf565b80601f016020809104026020016040519081016040528092919081815260200182805461038290611fbf565b80156103cf5780601f106103a4576101008083540402835291602001916103cf565b820191906000526020600020905b8154815290600101906020018083116103b257829003601f168201915b5050505050908060040180546103e490611fbf565b80601f016020809104026020016040519081016040528092919081815260200182805461041090611fbf565b801561045d5780601f106104325761010080835404028352916020019161045d565b820191906000526020600020905b81548152906001019060200180831161044057829003601f168201915b50505050509080600501805461047290611fbf565b80601f016020809104026020016040519081016040528092919081815260200182805461049e90611fbf565b80156104eb5780601f106104c0576101008083540402835291602001916104eb565b820191906000526020600020905b8154815290600101906020018083116104ce57829003601f168201915b50505050509080600601805461050090611fbf565b80601f016020809104026020016040519081016040528092919081815260200182805461052c90611fbf565b80156105795780601f1061054e57610100808354040283529160200191610579565b820191906000526020600020905b81548152906001019060200180831161055c57829003601f168201915b50505050509080600701805461058e90611fbf565b80601f01602080910402602001604051908101604052809291908181526020018280546105ba90611fbf565b80156106075780601f106105dc57610100808354040283529160200191610607565b820191906000526020600020905b8154815290600101906020018083116105ea57829003601f168201915b5050505050908060080154905089565b61061f61177f565b61062960006117d9565b565b6003546000906001600160a01b031633146106855760405162461bcd60e51b81526020600482015260156024820152741bdb9b1e481cd95c9d9a58d94818d85b8818d85b1b605a1b60448201526064015b60405180910390fd5b6005805490600061069583611ff9565b9091555050600554600081815260016020819052604090912091825581016106bd8b82612071565b50600281016106cc8c82612071565b50600381016106db8a82612071565b50600481016106ea8982612071565b50600581016106f98882612071565b50600681016107088782612071565b50600781016107178682612071565b506008810183905560005b84518110156107a8578160090185828151811061074157610741612131565b602090810291909101810151825460018101845560009384529190922082516003909202019081906107739082612071565b50602082015160018201906107889082612071565b506040820151600282019061079d9082612071565b505050600101610722565b5060028054600181810183556000929092528254600a9091027f405787fa12a823e0f2b7631cc41b3ba8828b3321ca811111fa75cd3aa3bb5ace810191825583927f405787fa12a823e0f2b7631cc41b3ba8828b3321ca811111fa75cd3aa3bb5acf9091019061081a90840182612147565b5060028181019061082d90840182612147565b5060038181019061084090840182612147565b5060048181019061085390840182612147565b5060058181019061086690840182612147565b5060068181019061087990840182612147565b5060078181019061088c90840182612147565b506008820154816008015560098201816009019080546108ad929190611829565b5050508a6040516108be9190612222565b60405180910390207f8ae5a1e1c537ffec7f7fd763f2308750bf96dcc204486d50272999253e2bc5ee6005548c6040516108f992919061223e565b60405180910390a2549a9950505050505050505050565b610966604051806101400160405280600081526020016060815260200160608152602001606081526020016060815260200160608152602001606081526020016060815260200160008152602001606081525090565b6004546001600160a01b031633146109905760405162461bcd60e51b815260040161067c9061225f565b6000821180156109a257506005548211155b6109e55760405162461bcd60e51b8152602060048201526014602482015273115b585a5b08191bd95cc81b9bdd08195e1a5cdd60621b604482015260640161067c565b6000828152600160208181526040928390208351610140810190945280548452918201805491840191610a1790611fbf565b80601f0160208091040260200160405190810160405280929190818152602001828054610a4390611fbf565b8015610a905780601f10610a6557610100808354040283529160200191610a90565b820191906000526020600020905b815481529060010190602001808311610a7357829003601f168201915b50505050508152602001600282018054610aa990611fbf565b80601f0160208091040260200160405190810160405280929190818152602001828054610ad590611fbf565b8015610b225780601f10610af757610100808354040283529160200191610b22565b820191906000526020600020905b815481529060010190602001808311610b0557829003601f168201915b50505050508152602001600382018054610b3b90611fbf565b80601f0160208091040260200160405190810160405280929190818152602001828054610b6790611fbf565b8015610bb45780601f10610b8957610100808354040283529160200191610bb4565b820191906000526020600020905b815481529060010190602001808311610b9757829003601f168201915b50505050508152602001600482018054610bcd90611fbf565b80601f0160208091040260200160405190810160405280929190818152602001828054610bf990611fbf565b8015610c465780601f10610c1b57610100808354040283529160200191610c46565b820191906000526020600020905b815481529060010190602001808311610c2957829003601f168201915b50505050508152602001600582018054610c5f90611fbf565b80601f0160208091040260200160405190810160405280929190818152602001828054610c8b90611fbf565b8015610cd85780601f10610cad57610100808354040283529160200191610cd8565b820191906000526020600020905b815481529060010190602001808311610cbb57829003601f168201915b50505050508152602001600682018054610cf190611fbf565b80601f0160208091040260200160405190810160405280929190818152602001828054610d1d90611fbf565b8015610d6a5780601f10610d3f57610100808354040283529160200191610d6a565b820191906000526020600020905b815481529060010190602001808311610d4d57829003601f168201915b50505050508152602001600782018054610d8390611fbf565b80601f0160208091040260200160405190810160405280929190818152602001828054610daf90611fbf565b8015610dfc5780601f10610dd157610100808354040283529160200191610dfc565b820191906000526020600020905b815481529060010190602001808311610ddf57829003601f168201915b505050505081526020016008820154815260200160098201805480602002602001604051908101604052809291908181526020016000905b8282101561101c5783829060005260206000209060030201604051806060016040529081600082018054610e6790611fbf565b80601f0160208091040260200160405190810160405280929190818152602001828054610e9390611fbf565b8015610ee05780601f10610eb557610100808354040283529160200191610ee0565b820191906000526020600020905b815481529060010190602001808311610ec357829003601f168201915b50505050508152602001600182018054610ef990611fbf565b80601f0160208091040260200160405190810160405280929190818152602001828054610f2590611fbf565b8015610f725780601f10610f4757610100808354040283529160200191610f72565b820191906000526020600020905b815481529060010190602001808311610f5557829003601f168201915b50505050508152602001600282018054610f8b90611fbf565b80601f0160208091040260200160405190810160405280929190818152602001828054610fb790611fbf565b80156110045780601f10610fd957610100808354040283529160200191611004565b820191906000526020600020905b815481529060010190602001808311610fe757829003601f168201915b50505050508152505081526020019060010190610e34565b505050915250909392505050565b61103261177f565b600380546001600160a01b0319166001600160a01b0392909216919091179055565b6004546060906001600160a01b031633146110815760405162461bcd60e51b815260040161067c9061225f565b6002805480602002602001604051908101604052809291908181526020016000905b828210156116fd57838290600052602060002090600a020160405180610140016040529081600082015481526020016001820180546110e190611fbf565b80601f016020809104026020016040519081016040528092919081815260200182805461110d90611fbf565b801561115a5780601f1061112f5761010080835404028352916020019161115a565b820191906000526020600020905b81548152906001019060200180831161113d57829003601f168201915b5050505050815260200160028201805461117390611fbf565b80601f016020809104026020016040519081016040528092919081815260200182805461119f90611fbf565b80156111ec5780601f106111c1576101008083540402835291602001916111ec565b820191906000526020600020905b8154815290600101906020018083116111cf57829003601f168201915b5050505050815260200160038201805461120590611fbf565b80601f016020809104026020016040519081016040528092919081815260200182805461123190611fbf565b801561127e5780601f106112535761010080835404028352916020019161127e565b820191906000526020600020905b81548152906001019060200180831161126157829003601f168201915b5050505050815260200160048201805461129790611fbf565b80601f01602080910402602001604051908101604052809291908181526020018280546112c390611fbf565b80156113105780601f106112e557610100808354040283529160200191611310565b820191906000526020600020905b8154815290600101906020018083116112f357829003601f168201915b5050505050815260200160058201805461132990611fbf565b80601f016020809104026020016040519081016040528092919081815260200182805461135590611fbf565b80156113a25780601f10611377576101008083540402835291602001916113a2565b820191906000526020600020905b81548152906001019060200180831161138557829003601f168201915b505050505081526020016006820180546113bb90611fbf565b80601f01602080910402602001604051908101604052809291908181526020018280546113e790611fbf565b80156114345780601f1061140957610100808354040283529160200191611434565b820191906000526020600020905b81548152906001019060200180831161141757829003601f168201915b5050505050815260200160078201805461144d90611fbf565b80601f016020809104026020016040519081016040528092919081815260200182805461147990611fbf565b80156114c65780601f1061149b576101008083540402835291602001916114c6565b820191906000526020600020905b8154815290600101906020018083116114a957829003601f168201915b505050505081526020016008820154815260200160098201805480602002602001604051908101604052809291908181526020016000905b828210156116e6578382906000526020600020906003020160405180606001604052908160008201805461153190611fbf565b80601f016020809104026020016040519081016040528092919081815260200182805461155d90611fbf565b80156115aa5780601f1061157f576101008083540402835291602001916115aa565b820191906000526020600020905b81548152906001019060200180831161158d57829003601f168201915b505050505081526020016001820180546115c390611fbf565b80601f01602080910402602001604051908101604052809291908181526020018280546115ef90611fbf565b801561163c5780601f106116115761010080835404028352916020019161163c565b820191906000526020600020905b81548152906001019060200180831161161f57829003601f168201915b5050505050815260200160028201805461165590611fbf565b80601f016020809104026020016040519081016040528092919081815260200182805461168190611fbf565b80156116ce5780601f106116a3576101008083540402835291602001916116ce565b820191906000526020600020905b8154815290600101906020018083116116b157829003601f168201915b505050505081525050815260200190600101906114fe565b5050505081525050815260200190600101906110a3565b50505050905090565b61170e61177f565b6001600160a01b0381166117735760405162461bcd60e51b815260206004820152602660248201527f4f776e61626c653a206e6577206f776e657220697320746865207a65726f206160448201526564647265737360d01b606482015260840161067c565b61177c816117d9565b50565b6000546001600160a01b031633146106295760405162461bcd60e51b815260206004820181905260248201527f4f776e61626c653a2063616c6c6572206973206e6f7420746865206f776e6572604482015260640161067c565b600080546001600160a01b038381166001600160a01b0319831681178455604051919092169283917f8be0079c531659141344cd1fd0a4f28419497f9722a3daafe3b4186f6b6457e09190a35050565b8280548282559060005260206000209060030281019282156118a15760005260206000209160030282015b828111156118a1578282806118698382612147565b5060018181019061187c90840182612147565b5060028181019061188f90840182612147565b50505091600301919060030190611854565b506118ad9291506118b1565b5090565b808211156118ad5760006118c582826118ea565b6118d36001830160006118ea565b6118e16002830160006118ea565b506003016118b1565b5080546118f690611fbf565b6000825580601f10611906575050565b601f01602090049060005260206000209081019061177c91905b808211156118ad5760008155600101611920565b60006020828403121561194657600080fd5b81356001600160a01b038116811461195d57600080fd5b9392505050565b60006020828403121561197657600080fd5b5035919050565b60005b83811015611998578181015183820152602001611980565b50506000910152565b600081518084526119b981602086016020860161197d565b601f01601f19169290920160200192915050565b60006101208b83528060208401526119e78184018c6119a1565b905082810360408401526119fb818b6119a1565b90508281036060840152611a0f818a6119a1565b90508281036080840152611a2381896119a1565b905082810360a0840152611a3781886119a1565b905082810360c0840152611a4b81876119a1565b905082810360e0840152611a5f81866119a1565b915050826101008301529a9950505050505050505050565b634e487b7160e01b600052604160045260246000fd5b6040516060810167ffffffffffffffff81118282101715611ab057611ab0611a77565b60405290565b604051601f8201601f1916810167ffffffffffffffff81118282101715611adf57611adf611a77565b604052919050565b600082601f830112611af857600080fd5b813567ffffffffffffffff811115611b1257611b12611a77565b611b25601f8201601f1916602001611ab6565b818152846020838601011115611b3a57600080fd5b816020850160208301376000918101602001919091529392505050565b600082601f830112611b6857600080fd5b8135602067ffffffffffffffff80831115611b8557611b85611a77565b8260051b611b94838201611ab6565b9384528581018301938381019088861115611bae57600080fd5b84880192505b85831015611c6c57823584811115611bcc5760008081fd5b88016060818b03601f1901811315611be45760008081fd5b611bec611a8d565b8783013587811115611bfe5760008081fd5b611c0c8d8a83870101611ae7565b82525060408084013588811115611c235760008081fd5b611c318e8b83880101611ae7565b838b015250918301359187831115611c495760008081fd5b611c578d8a85870101611ae7565b90820152845250509184019190840190611bb4565b98975050505050505050565b60008060008060008060008060006101208a8c031215611c9757600080fd5b893567ffffffffffffffff80821115611caf57600080fd5b611cbb8d838e01611ae7565b9a5060208c0135915080821115611cd157600080fd5b611cdd8d838e01611ae7565b995060408c0135915080821115611cf357600080fd5b611cff8d838e01611ae7565b985060608c0135915080821115611d1557600080fd5b611d218d838e01611ae7565b975060808c0135915080821115611d3757600080fd5b611d438d838e01611ae7565b965060a08c0135915080821115611d5957600080fd5b611d658d838e01611ae7565b955060c08c0135915080821115611d7b57600080fd5b611d878d838e01611ae7565b945060e08c0135915080821115611d9d57600080fd5b50611daa8c828d01611b57565b9250506101008a013590509295985092959850929598565b600082825180855260208086019550808260051b84010181860160005b84811015611e4e57601f19868403018952815160608151818652611e05828701826119a1565b9150508582015185820387870152611e1d82826119a1565b91505060408083015192508582038187015250611e3a81836119a1565b9a86019a9450505090830190600101611ddf565b5090979650505050505050565b6000610140825184526020830151816020860152611e7b828601826119a1565b91505060408301518482036040860152611e9582826119a1565b91505060608301518482036060860152611eaf82826119a1565b91505060808301518482036080860152611ec982826119a1565b91505060a083015184820360a0860152611ee382826119a1565b91505060c083015184820360c0860152611efd82826119a1565b91505060e083015184820360e0860152611f1782826119a1565b9150506101008084015181860152506101208084015185830382870152611f3e8382611dc2565b9695505050505050565b60208152600061195d6020830184611e5b565b600060208083016020845280855180835260408601915060408160051b87010192506020870160005b82811015611fb257603f19888603018452611fa0858351611e5b565b94509285019290850190600101611f84565b5092979650505050505050565b600181811c90821680611fd357607f821691505b602082108103611ff357634e487b7160e01b600052602260045260246000fd5b50919050565b60006001820161201957634e487b7160e01b600052601160045260246000fd5b5060010190565b601f82111561206c576000816000526020600020601f850160051c810160208610156120495750805b601f850160051c820191505b8181101561206857828155600101612055565b5050505b505050565b815167ffffffffffffffff81111561208b5761208b611a77565b61209f816120998454611fbf565b84612020565b602080601f8311600181146120d457600084156120bc5750858301515b600019600386901b1c1916600185901b178555612068565b600085815260208120601f198616915b82811015612103578886015182559484019460019091019084016120e4565b50858210156121215787850151600019600388901b60f8161c191681555b5050505050600190811b01905550565b634e487b7160e01b600052603260045260246000fd5b818103612152575050565b61215c8254611fbf565b67ffffffffffffffff81111561217457612174611a77565b612182816120998454611fbf565b6000601f8211600181146121b6576000831561219e5750848201545b600019600385901b1c1916600184901b17845561221b565b600085815260209020601f19841690600086815260209020845b838110156121f057828601548255600195860195909101906020016121d0565b508583101561220e5781850154600019600388901b60f8161c191681555b50505060018360011b0184555b5050505050565b6000825161223481846020870161197d565b9190910192915050565b82815260406020820152600061225760408301846119a1565b949350505050565b60208082526021908201527f6f6e6c7920456d61696c2053746f72616765204f776e65722063616e2063616c6040820152601b60fa1b60608201526080019056fea2646970667358221220b906c9544bf03bddc9a3793fa57b93ddc93b12b86060c80c6fc7c80b164043fb64736f6c63430008190033a264697066735822122049b757995cefd17bc1a3395d3aebfee6bfa722400f8b75d5b7b6f84cecb5010164736f6c63430008190033","linkReferences":{}},"methodIdentifiers":{"createEmailStorage()":"e99ed449","getEmailStorageBySender(address)":"a6439c32","getSenderByEmailStorage(address)":"20c5f724","owner()":"8da5cb5b","renounceOwnership()":"715018a6","service()":"d598d4c9","setService(address)":"bf8bdac1","transferOwnership(address)":"f2fde38b"},"id":26}